{
  "contractName": "Authenticator",
  "abi": [
    {
      "inputs": [
        {
          "internalType": "contract Kyc",
          "name": "_kyc",
          "type": "address"
        }
      ],
      "stateMutability": "nonpayable",
      "type": "constructor"
    },
    {
      "anonymous": false,
      "inputs": [
        {
          "indexed": true,
          "internalType": "address",
          "name": "previousOwner",
          "type": "address"
        },
        {
          "indexed": true,
          "internalType": "address",
          "name": "newOwner",
          "type": "address"
        }
      ],
      "name": "OwnershipTransferred",
      "type": "event"
    },
    {
      "inputs": [],
      "name": "owner",
      "outputs": [
        {
          "internalType": "address",
          "name": "",
          "type": "address"
        }
      ],
      "stateMutability": "view",
      "type": "function"
    },
    {
      "inputs": [],
      "name": "renounceOwnership",
      "outputs": [],
      "stateMutability": "nonpayable",
      "type": "function"
    },
    {
      "inputs": [
        {
          "internalType": "address",
          "name": "newOwner",
          "type": "address"
        }
      ],
      "name": "transferOwnership",
      "outputs": [],
      "stateMutability": "nonpayable",
      "type": "function"
    },
    {
      "inputs": [],
      "name": "requestPassword",
      "outputs": [
        {
          "internalType": "uint256",
          "name": "",
          "type": "uint256"
        }
      ],
      "stateMutability": "nonpayable",
      "type": "function"
    },
    {
      "inputs": [
        {
          "internalType": "uint256",
          "name": "_index",
          "type": "uint256"
        }
      ],
      "name": "validatePassword",
      "outputs": [
        {
          "internalType": "bool",
          "name": "",
          "type": "bool"
        }
      ],
      "stateMutability": "nonpayable",
      "type": "function"
    }
  ],
  "bytecode": "0x608060405234801561001057600080fd5b50604051610cb0380380610cb08339818101604052810190610032919061017e565b61004e61004361009d60201b60201c565b6100a560201b60201c565b600060028190555080600160006101000a81548173ffffffffffffffffffffffffffffffffffffffff021916908373ffffffffffffffffffffffffffffffffffffffff1602179055505061020b565b600033905090565b60008060009054906101000a900473ffffffffffffffffffffffffffffffffffffffff169050816000806101000a81548173ffffffffffffffffffffffffffffffffffffffff021916908373ffffffffffffffffffffffffffffffffffffffff1602179055508173ffffffffffffffffffffffffffffffffffffffff168173ffffffffffffffffffffffffffffffffffffffff167f8be0079c531659141344cd1fd0a4f28419497f9722a3daafe3b4186f6b6457e060405160405180910390a35050565b600081519050610178816101f4565b92915050565b600060208284031215610194576101936101ef565b5b60006101a284828501610169565b91505092915050565b60006101b6826101cf565b9050919050565b60006101c8826101ab565b9050919050565b600073ffffffffffffffffffffffffffffffffffffffff82169050919050565b600080fd5b6101fd816101bd565b811461020857600080fd5b50565b610a968061021a6000396000f3fe608060405234801561001057600080fd5b50600436106100575760003560e01c80630822dbdf1461005c578063715018a61461007a5780638da5cb5b14610084578063ad7cc297146100a2578063f2fde38b146100d2575b600080fd5b6100646100ee565b6040516100719190610860565b60405180910390f35b61008261022e565b005b61008c6102b6565b60405161009991906107aa565b60405180910390f35b6100bc60048036038101906100b791906106c4565b6102df565b6040516100c991906107c5565b60405180910390f35b6100ec60048036038101906100e7919061066a565b610467565b005b6000600160009054906101000a900473ffffffffffffffffffffffffffffffffffffffff1673ffffffffffffffffffffffffffffffffffffffff1663df235fe4336040518263ffffffff1660e01b815260040161014b91906107aa565b60206040518083038186803b15801561016357600080fd5b505afa158015610177573d6000803e3d6000fd5b505050506040513d601f19601f8201168201806040525081019061019b9190610697565b6101da576040517f08c379a00000000000000000000000000000000000000000000000000000000081526004016101d190610840565b60405180910390fd5b600160036000600254815260200190815260200160002060006101000a81548160ff0219169083151502179055506000600254905060026000815480929190610222906108d4565b91905055508091505090565b61023661055f565b73ffffffffffffffffffffffffffffffffffffffff166102546102b6565b73ffffffffffffffffffffffffffffffffffffffff16146102aa576040517f08c379a00000000000000000000000000000000000000000000000000000000081526004016102a190610820565b60405180910390fd5b6102b46000610567565b565b60008060009054906101000a900473ffffffffffffffffffffffffffffffffffffffff16905090565b6000600160009054906101000a900473ffffffffffffffffffffffffffffffffffffffff1673ffffffffffffffffffffffffffffffffffffffff1663df235fe4336040518263ffffffff1660e01b815260040161033c91906107aa565b60206040518083038186803b15801561035457600080fd5b505afa158015610368573d6000803e3d6000fd5b505050506040513d601f19601f8201168201806040525081019061038c9190610697565b6103cb576040517f08c379a00000000000000000000000000000000000000000000000000000000081526004016103c290610840565b60405180910390fd5b600115156003600084815260200190815260200160002060009054906101000a900460ff16151514610432576040517f08c379a000000000000000000000000000000000000000000000000000000000815260040161042990610800565b60405180910390fd5b60006003600084815260200190815260200160002060006101000a81548160ff02191690831515021790555060019050919050565b61046f61055f565b73ffffffffffffffffffffffffffffffffffffffff1661048d6102b6565b73ffffffffffffffffffffffffffffffffffffffff16146104e3576040517f08c379a00000000000000000000000000000000000000000000000000000000081526004016104da90610820565b60405180910390fd5b600073ffffffffffffffffffffffffffffffffffffffff168173ffffffffffffffffffffffffffffffffffffffff161415610553576040517f08c379a000000000000000000000000000000000000000000000000000000000815260040161054a906107e0565b60405180910390fd5b61055c81610567565b50565b600033905090565b60008060009054906101000a900473ffffffffffffffffffffffffffffffffffffffff169050816000806101000a81548173ffffffffffffffffffffffffffffffffffffffff021916908373ffffffffffffffffffffffffffffffffffffffff1602179055508173ffffffffffffffffffffffffffffffffffffffff168173ffffffffffffffffffffffffffffffffffffffff167f8be0079c531659141344cd1fd0a4f28419497f9722a3daafe3b4186f6b6457e060405160405180910390a35050565b60008135905061063a81610a1b565b92915050565b60008151905061064f81610a32565b92915050565b60008135905061066481610a49565b92915050565b6000602082840312156106805761067f61094c565b5b600061068e8482850161062b565b91505092915050565b6000602082840312156106ad576106ac61094c565b5b60006106bb84828501610640565b91505092915050565b6000602082840312156106da576106d961094c565b5b60006106e884828501610655565b91505092915050565b6106fa8161088c565b82525050565b6107098161089e565b82525050565b600061071c60268361087b565b915061072782610951565b604082019050919050565b600061073f60128361087b565b915061074a826109a0565b602082019050919050565b600061076260208361087b565b915061076d826109c9565b602082019050919050565b600061078560188361087b565b9150610790826109f2565b602082019050919050565b6107a4816108ca565b82525050565b60006020820190506107bf60008301846106f1565b92915050565b60006020820190506107da6000830184610700565b92915050565b600060208201905081810360008301526107f98161070f565b9050919050565b6000602082019050818103600083015261081981610732565b9050919050565b6000602082019050818103600083015261083981610755565b9050919050565b6000602082019050818103600083015261085981610778565b9050919050565b6000602082019050610875600083018461079b565b92915050565b600082825260208201905092915050565b6000610897826108aa565b9050919050565b60008115159050919050565b600073ffffffffffffffffffffffffffffffffffffffff82169050919050565b6000819050919050565b60006108df826108ca565b91507fffffffffffffffffffffffffffffffffffffffffffffffffffffffffffffffff8214156109125761091161091d565b5b600182019050919050565b7f4e487b7100000000000000000000000000000000000000000000000000000000600052601160045260246000fd5b600080fd5b7f4f776e61626c653a206e6577206f776e657220697320746865207a65726f206160008201527f6464726573730000000000000000000000000000000000000000000000000000602082015250565b7f4572726f723a20496e76616c6964206b65790000000000000000000000000000600082015250565b7f4f776e61626c653a2063616c6c6572206973206e6f7420746865206f776e6572600082015250565b7f4572726f723a204b7963206e6f7420636f6d706c657465640000000000000000600082015250565b610a248161088c565b8114610a2f57600080fd5b50565b610a3b8161089e565b8114610a4657600080fd5b50565b610a52816108ca565b8114610a5d57600080fd5b5056fea26469706673582212208ed62365e9d6b4c82e21893321c805b4aac26d1d6bcd678409cf5c8fc508d90d64736f6c63430008060033",
  "immutableReferences": {},
  "source": "// SPDX-License-Identifier: UNLINCENSED\npragma solidity ^0.8.0;\n\nimport \"@openzeppelin/contracts/access/Ownable.sol\";\nimport \"./Kyc.sol\";\n\ncontract Authenticator is Ownable {\n\n    Kyc kyc;\n    uint256 index;\n    mapping (uint256 => bool) keys;\n\n    constructor(Kyc _kyc) {\n        index = uint256(0);\n        kyc = _kyc;\n    }\n\n    //TODO create a password and return it\n    function requestPassword() public returns(uint256) {\n        require(kyc.kycCompleted(msg.sender), \"Error: Kyc not completed\");\n        keys[index] = true;\n        uint256 returnIndex = index;\n        index++;\n        return returnIndex;\n    }\n\n    //TODO validate the password\n    function validatePassword(uint256 _index) public returns(bool){\n        require(kyc.kycCompleted(msg.sender), \"Error: Kyc not completed\");\n        require(keys[_index] == true, \"Error: Invalid key\");\n        keys[_index] = false;\n        return true;\n    }\n}\n",
  "sourcePath": "/Users/spencer/Workspace/learning_ethereum/contracts/Authenticator.sol",
  "compiler": {
    "name": "solc",
    "version": "0.8.6+commit.11564f7e.Emscripten.clang"
  },
  "schemaVersion": "3.4.1",
  "updatedAt": "2021-07-02T00:23:53.147Z",
  "networkType": "ethereum",
  "devdoc": {
    "kind": "dev",
    "methods": {
      "owner()": {
        "details": "Returns the address of the current owner."
      },
      "renounceOwnership()": {
        "details": "Leaves the contract without owner. It will not be possible to call `onlyOwner` functions anymore. Can only be called by the current owner. NOTE: Renouncing ownership will leave the contract without an owner, thereby removing any functionality that is only available to the owner."
      },
      "transferOwnership(address)": {
        "details": "Transfers ownership of the contract to a new account (`newOwner`). Can only be called by the current owner."
      }
    },
    "version": 1
  },
  "userdoc": {
    "kind": "user",
    "methods": {},
    "version": 1
  }
}